{
  "contractName": "Storage",
  "abi": [
    {
      "constant": true,
      "inputs": [
        {
          "name": "",
          "type": "address"
        }
      ],
      "name": "states",
      "outputs": [
        {
          "name": "",
          "type": "uint8"
        }
      ],
      "payable": false,
      "stateMutability": "view",
      "type": "function"
    },
    {
      "inputs": [],
      "payable": false,
      "stateMutability": "nonpayable",
      "type": "constructor"
    },
    {
      "constant": false,
      "inputs": [
        {
          "name": "user",
          "type": "address"
        },
        {
          "name": "newState",
          "type": "uint8"
        }
      ],
      "name": "setState",
      "outputs": [],
      "payable": false,
      "stateMutability": "nonpayable",
      "type": "function"
    }
  ],
  "bytecode": "0x608060405234801561001057600080fd5b5061015d806100206000396000f30060806040526004361061004b5763ffffffff7c010000000000000000000000000000000000000000000000000000000060003504166302a22337811461005057806327737d58146100a2575b600080fd5b34801561005c57600080fd5b5061007e73ffffffffffffffffffffffffffffffffffffffff600435166100d8565b6040518082600181111561008e57fe5b60ff16815260200191505060405180910390f35b3480156100ae57600080fd5b506100d673ffffffffffffffffffffffffffffffffffffffff6004351660ff602435166100ed565b005b60006020819052908152604090205460ff1681565b73ffffffffffffffffffffffffffffffffffffffff82166000908152602081905260409020805482919060ff19166001838181111561012857fe5b021790555050505600a165627a7a72305820a60febe0bd8bf7ca8071771f179148a5668705084be923ee8a51f8645285a0830029",
  "source": "pragma solidity ^0.4.24;\r\n\r\nimport './IStorage.sol';\r\n\r\ncontract Storage is IStorage {\r\n\r\n    mapping(address=>RecordState) public states;\r\n\r\n    constructor() public {\r\n    }\r\n\r\n    function setState(address user, RecordState newState) public {\r\n        states[user] = newState;\r\n    }\r\n}",
  "sourcePath": "D:\\projects\\posts\\p2_solidity_enums\\contracts\\Storage.sol",
  "compiler": {
    "name": "solc",
    "version": "0.4.24+commit.e67f0147.Emscripten.clang"
  },
  "schemaVersion": "2.0.1",
  "updatedAt": "2019-08-18T11:27:34.231Z"
}