{
  "contractName": "StorageUser",
  "abi": [
    {
      "constant": true,
      "inputs": [],
      "name": "recordStorage",
      "outputs": [
        {
          "name": "",
          "type": "address"
        }
      ],
      "payable": false,
      "stateMutability": "view",
      "type": "function"
    },
    {
      "inputs": [
        {
          "name": "_recordStorage",
          "type": "address"
        }
      ],
      "payable": false,
      "stateMutability": "nonpayable",
      "type": "constructor"
    },
    {
      "constant": false,
      "inputs": [],
      "name": "changeStateA",
      "outputs": [],
      "payable": false,
      "stateMutability": "nonpayable",
      "type": "function"
    },
    {
      "constant": false,
      "inputs": [],
      "name": "changeStateB",
      "outputs": [],
      "payable": false,
      "stateMutability": "nonpayable",
      "type": "function"
    },
    {
      "constant": false,
      "inputs": [],
      "name": "changeStateC",
      "outputs": [],
      "payable": false,
      "stateMutability": "nonpayable",
      "type": "function"
    }
  ],
  "bytecode": "0x608060405234801561001057600080fd5b506040516020806102d4833981016040525160008054600160a060020a03909216600160a060020a0319909216919091179055610282806100526000396000f3006080604052600436106100615763ffffffff7c01000000000000000000000000000000000000000000000000000000006000350416636e5f3dda81146100665780637bf72222146100a4578063a8eb711f146100bb578063bf9c91ce146100d0575b600080fd5b34801561007257600080fd5b5061007b6100e5565b6040805173ffffffffffffffffffffffffffffffffffffffff9092168252519081900360200190f35b3480156100b057600080fd5b506100b9610101565b005b3480156100c757600080fd5b506100b961019a565b3480156100dc57600080fd5b506100b96101f9565b60005473ffffffffffffffffffffffffffffffffffffffff1681565b6000546040517f27737d58000000000000000000000000000000000000000000000000000000008152336004820181815273ffffffffffffffffffffffffffffffffffffffff909316926327737d589260029190602401825b60ff16815260200192505050600060405180830381600087803b15801561018057600080fd5b505af1158015610194573d6000803e3d6000fd5b50505050565b600080546040517f27737d58000000000000000000000000000000000000000000000000000000008152336004820181815273ffffffffffffffffffffffffffffffffffffffff909316936327737d589391929091906024018261015a565b6000546040517f27737d58000000000000000000000000000000000000000000000000000000008152336004820181815273ffffffffffffffffffffffffffffffffffffffff909316926327737d5892600191906024018261015a5600a165627a7a723058203f09c866655525845f603e3b7a2f760cd0978fa2d236589f591eb3e3086ac4480029",
  "source": "pragma solidity ^0.4.24;\r\n\r\nimport './IStorage.sol';\r\n\r\ncontract StorageUser {\r\n\r\n    IStorage public recordStorage;\r\n\r\n    constructor(IStorage _recordStorage) public {\r\n        recordStorage = _recordStorage;\r\n    }\r\n\r\n    function changeStateA() external {\r\n        recordStorage.setState(msg.sender, IStorage.RecordState.StateA);\r\n    }\r\n\r\n    function changeStateB() external {\r\n        recordStorage.setState(msg.sender, IStorage.RecordState.StateB);\r\n    }\r\n\r\n    //uncomment this method to use 'updated version' of contract\r\n    function changeStateC() external {\r\n        recordStorage.setState(msg.sender, IStorage.RecordState.StateC);\r\n    }\r\n}",
  "sourcePath": "D:\\projects\\posts\\p2_solidity_enums\\contracts\\StorageUser.sol",
  "compiler": {
    "name": "solc",
    "version": "0.4.24+commit.e67f0147.Emscripten.clang"
  },
  "schemaVersion": "2.0.1",
  "updatedAt": "2019-08-18T11:26:03.122Z"
}