{
  "contractName": "StorageUser",
  "abi": [
    {
      "constant": true,
      "inputs": [],
      "name": "recordStorage",
      "outputs": [
        {
          "name": "",
          "type": "address"
        }
      ],
      "payable": false,
      "stateMutability": "view",
      "type": "function"
    },
    {
      "inputs": [
        {
          "name": "_recordStorage",
          "type": "address"
        }
      ],
      "payable": false,
      "stateMutability": "nonpayable",
      "type": "constructor"
    },
    {
      "constant": false,
      "inputs": [],
      "name": "changeStateA",
      "outputs": [],
      "payable": false,
      "stateMutability": "nonpayable",
      "type": "function"
    },
    {
      "constant": false,
      "inputs": [],
      "name": "changeStateB",
      "outputs": [],
      "payable": false,
      "stateMutability": "nonpayable",
      "type": "function"
    }
  ],
  "bytecode": "0x608060405234801561001057600080fd5b50604051602080610257833981016040525160008054600160a060020a03909216600160a060020a0319909216919091179055610205806100526000396000f3006080604052600436106100565763ffffffff7c01000000000000000000000000000000000000000000000000000000006000350416636e5f3dda811461005b578063a8eb711f14610099578063bf9c91ce146100b0575b600080fd5b34801561006757600080fd5b506100706100c5565b6040805173ffffffffffffffffffffffffffffffffffffffff9092168252519081900360200190f35b3480156100a557600080fd5b506100ae6100e1565b005b3480156100bc57600080fd5b506100ae61017c565b60005473ffffffffffffffffffffffffffffffffffffffff1681565b600080546040517f27737d58000000000000000000000000000000000000000000000000000000008152336004820181815273ffffffffffffffffffffffffffffffffffffffff909316936327737d58939192909190602401825b60ff16815260200192505050600060405180830381600087803b15801561016257600080fd5b505af1158015610176573d6000803e3d6000fd5b50505050565b6000546040517f27737d58000000000000000000000000000000000000000000000000000000008152336004820181815273ffffffffffffffffffffffffffffffffffffffff909316926327737d5892600191906024018261013c5600a165627a7a7230582013a05ce828d0e7c712b0b365d0283935bc7f6534f99090251b09a42c7d94bf270029",
  "source": "pragma solidity ^0.4.24;\r\n\r\nimport './IStorage.sol';\r\n\r\ncontract StorageUser {\r\n\r\n    IStorage public recordStorage;\r\n\r\n    constructor(IStorage _recordStorage) public {\r\n        recordStorage = _recordStorage;\r\n    }\r\n\r\n    function changeStateA() external {\r\n        recordStorage.setState(msg.sender, IStorage.RecordState.StateA);\r\n    }\r\n\r\n    function changeStateB() external {\r\n        recordStorage.setState(msg.sender, IStorage.RecordState.StateB);\r\n    }\r\n\r\n    //uncomment this method to use 'updated version' of contract\r\n    // function changeStateC() external {\r\n    //     recordStorage.setState(msg.sender, IStorage.RecordState.StateC);\r\n    // }\r\n}",
  "sourcePath": "D:\\projects\\posts\\p2_solidity_enums\\contracts\\StorageUser.sol",
  "compiler": {
    "name": "solc",
    "version": "0.4.24+commit.e67f0147.Emscripten.clang"
  },
  "schemaVersion": "2.0.1",
  "updatedAt": "2019-08-18T11:27:34.232Z"
}